:100000000C945D000C9485000C9485000C94850084
:100010000C9485000C9485000C9485000C9485004C
:100020000C9485000C9485000C9485000C9485003C
:100030000C9485000C9485000C9485000C9485002C
:100040000C94E9010C9485000C9485000C948500B7
:100050000C9485000C9485000C9485000C9485000C
:100060000C9485000C94850000000008000201003B
:100070000003040700000000000000000000000072
:10008000250028002B0000000000240027002A0083
:10009000040404040404040402020202020203032E
:1000A0000303030301020408102040800102040836
:1000B00010200102040810208F0411241FBECFEF6E
:1000C000D8E0DEBFCDBF11E0A0E0B1E0E8E0FAE0AB
:1000D00002C005900D92A835B107D9F721E0A8E537
:1000E000B1E001C01D92AC38B207E1F710E0CDE5F8
:1000F000D0E004C02197FE010E94FC04CC35D1075A
:10010000C9F70E9433020C9402050C94000090E0A1
:10011000FC01EC55FF4F249180579F4FFC018491C7
:10012000882399F090E0880F991FFC01EA57FF4F50
:10013000A591B491FC01E458FF4F859194918FB73C
:10014000F894EC91E22BEC938FBF089590E0FC01C2
:10015000E859FF4F2491FC01EC55FF4F3491FC010D
:10016000E057FF4FE491EE23C9F0222339F023300A
:1001700001F1A8F4213019F1223029F1F0E0EE0F5D
:10018000FF1FE458FF4FA591B4918FB7F894EC91FD
:10019000611126C030953E233C938FBF08952730D0
:1001A000A9F02830C9F0243049F7809180008F7D74
:1001B00003C0809180008F7780938000DFCF84B56B
:1001C0008F7784BDDBCF84B58F7DFBCF8091B0006E
:1001D0008F778093B000D2CF8091B0008F7DF9CF20
:1001E0003E2BDACFCF93DF93C82FD0E080917901F7
:1001F000D81758F4ED2FF0E0EF59FE4F60916401ED
:1002000087850E94A600DF5FF1CFEC2FF0E0EF5969
:10021000FE4F609162018781DF91CF910C94A6001F
:10022000CF93DF93C82FD0E080917801D81758F48E
:10023000ED2FF0E0EF59FE4F6091620187810E943F
:10024000A600DF5FF1CFEC2FF0E0EF59FE4F609199
:1002500064018785DF91CF910C94A6001F93CF9303
:10026000DF93C82FD0E0CF59DE4F609161018F81BD
:100270000E94A60010E06A96809179011817A8F4F0
:10028000E12FF0E0888190E0012E02C095958795DE
:100290000A94E2F780FF07C0EF59FE4F60916301B7
:1002A00087850E94A6001F5FE7CFDF91CF911F9146
:1002B00008950F931F93CF93C82FE82FF0E0EF59C5
:1002C000FE4F6091630187850E94A60001E010E067
:1002D00002C0000F111FCA95E2F7C0E080917801BB
:1002E000C81788F4EC2FF0E0EF59FE4F828D90E0B4
:1002F00080239123892B29F06091610187810E94DD
:10030000A600CF5FEBCFCF911F910F910895823060
:10031000910538F0880F991F880F991F059701974D
:10032000F1F708953FB7F89480915D0190915E01D7
:10033000A0915F01B091600126B5A89B05C02F3F39
:1003400019F00196A11DB11D3FBFBA2FA92F982FFB
:100350008827BC01CD01620F711D811D911D42E0F6
:10036000660F771F881F991F4A95D1F708958F92BE
:100370009F92AF92BF92CF92DF92EF92FF924B018A
:100380005C010E9492016B017C010E9492016C1938
:100390007D098E099F09683E734081059105A8F388
:1003A00021E0821A9108A108B10888EEC80E83E006
:1003B000D81EE11CF11C81149104A104B10429F799
:1003C000FF90EF90DF90CF90BF90AF909F908F9075
:1003D00008951F920F920FB60F9211242F933F93FF
:1003E0008F939F93AF93BF938091590190915A013E
:1003F000A0915B01B0915C013091580123E0230F83
:100400002D3758F50196A11DB11D209358018093F9
:10041000590190935A01A0935B01B0935C018091C4
:100420005D0190915E01A0915F01B0916001019624
:10043000A11DB11D80935D0190935E01A0935F01AA
:10044000B0936001BF91AF919F918F913F912F9198
:100450000F900FBE0F901F90189526E8230F02965D
:10046000A11DB11DD2CFCF93DF93CDB7DEB7639778
:100470000FB6F894DEBF0FBECDBF789484B582600E
:1004800084BD84B5816084BD85B5826085BD85B538
:10049000816085BD80916E00816080936E001092B6
:1004A0008100809181008260809381008091810031
:1004B00081608093810080918000816080938000C2
:1004C0008091B10084608093B1008091B000816020
:1004D0008093B00080917A00846080937A0080914C
:1004E0007A00826080937A0080917A0081608093A4
:1004F0007A0080917A00806880937A001092C1001F
:1005000081E08093650110926601109267018093EB
:10051000780198E0909379011092610180936301D2
:100520008093620110926401E0E0F1E0A0E7B1E0A5
:1005300081918D9321E0E830F207D1F78091580145
:100540008093680110E080917801181798F4812F4A
:1005500090E0AC014F595E4F7A01DA0117968C9109
:100560000E94870060916201F70187810E94A600C6
:100570001F5FE9CF10E080917901181750F090913A
:100580007801EBE7F1E080E09817B1F011928F5F0E
:10059000FBCF812F90E09C012F593E4F7901D9016B
:1005A0001F968C910E94870060916401F7018785F6
:1005B0000E94A6001F5FDFCF80E00E94100180E054
:1005C0000E94F20089E00E9487008AE00E94870072
:1005D0008BE00E9487009E012F5F3F4F490105E09D
:1005E00010E099E0C92ED12CE12CF12C2601370125
:1005F000309178013987A32EB12CA501440F551FE6
:10060000440F551F5B874A87FA01E05DFE4F8081EA
:100610009181A281B381C816D906EA06FB06CCF007
:10062000F4018E2F88193985831708F464C08BE78D
:1006300091E0D4012A2F2819E9852E1708F077C0F8
:10064000ED91F0E0E95FFE4F2081FC012193CF01A5
:10065000F1CFAA85BB85A45DBE4F8D919D910D9074
:10066000BC91A02D21E030E040E050E0281B390B88
:100670004A0B5B0BDA01C901C816D906EA06FB066C
:100680007CF21F019D868C862CEFA5012403C001FE
:10069000259F900D11249B8B8A8B80E391E082151E
:1006A000930561F194E0291A3108EA89FB89E20D8A
:1006B000F31DAA85BB85EA0FFB1F20813181428192
:1006C00053812E873F87488B598BC301B2010E940B
:1006D000A104AC85BD852D93BD87AC87A22FB0E06A
:1006E0002E853F85488959890E94C004461A570AB9
:1006F000680A790AD2CF45E2419393CF809167018E
:10070000811195CF20E0C5010197E22FF0E0E817B5
:10071000F9070CF08CCFE80DF91D3081311104C0C0
:10072000B4E2B0832F5FF1CF3A30E0F780CF809111
:1007300066018111A2C00E949201E0918B0140905C
:1007400083015090840160908501709086019B0127
:10075000AC01241935094609570929013A012091AC
:10076000890130918A01E11104C020918701309103
:100770008801032E000C440B550B421653066406E9
:1007800075066CF1609383017093840180938501F9
:100790009093860180917A0120916501211150C0CA
:1007A000EE2391F010928B0180917A018F5F8093FC
:1007B0007A0190917901891710F010927A01809155
:1007C0007A010E9459010BC00E9410018091890199
:1007D00090918A01892B41F331E030938B0164E1E0
:1007E00070E080E090E00E94B70168EE73E080E086
:1007F00090E00E94B701C801039761E0039708F0F9
:1008000077C08AE00E94A60060E089E00E94A6000E
:1008100060E08BE00E94A60041E0C41AD108E10824
:10082000F108015011090B3F5FEF150709F0DECE0B
:1008300080E090E0892B09F4D2CE0E940000CFCE58
:10084000EE2391F010928B0180917A018F5F80935B
:100850007A0190917801891710F010927A018091B5
:100860007A010E942E01BBCF0E94F2008091890183
:1008700090918A01892B41F3AFCF80916501B12C12
:1008800081111BC080917901B81608F0A8CF8B2D7B
:100890000E94590180918701909188010E948701EF
:1008A0008B2D0E9410018091890190918A010097FF
:1008B00011F00E948701B394E5CF80917801B816BA
:1008C00008F08DCF8B2D0E942E0180918701909191
:1008D00088010E9487018B2D0E94F200809189017E
:1008E00090918A01009711F00E948701B394E5CF9F
:1008F0000330110550F48BE00E94A60060E08AE00E
:100900000E94A60060E089E085CF89E00E94A600F1
:1009100060E08BE00E94A60060E08AE07BCFE1E629
:10092000F1E080ED97E097A386A311A610A612A68A
:10093000178A118E12A213A214A215A21482158274
:100940000895052E97FB1EF400940E94B80457FDED
:1009500007D00E94CB0407FC03D04EF40C94B804DB
:1009600050954095309521953F4F4F4F5F4F0895DB
:1009700090958095709561957F4F8F4F9F4F08950B
:100980000E94ED04A59F900DB49F900DA49F800D33
:10099000911D11240895A1E21A2EAA1BBB1BFD0173
:1009A0000DC0AA1FBB1FEE1FFF1FA217B307E4074E
:1009B000F50720F0A21BB30BE40BF50B661F771FA6
:1009C000881F991F1A9469F7609570958095909586
:1009D0009B01AC01BD01CF010895A29FB001B39F5F
:1009E000C001A39F700D811D1124911DB29F700D38
:1009F000811D1124911D0895EE0FFF1F0590F491A4
:080A0000E02D0994F894FFCFEA
:100A0800020304050607083F065B4F666D7D077FF6
:100A18006F777C395E79713D76300E763800543FB9
:100A28007367506D783E3E00766E5B0040806308C9
:100A3800010000000A00000064000000E803000054
:100A480010270000A086010040420F008096980001
:080A580000E1F50500CA9A3B1C
:00000001FF
