:020000040000FA
:100000000C9462000C948A000C948A000C948A0070
:100010000C948A000C948A000C948A000C948A0038
:100020000C948A000C948A000C948A000C946D0342
:100030000C948A000C948A000C948A000C948A0018
:100040000C94CB020C948A000C943B030C94150383
:100050000C948A000C948A000C948A000C948A00F8
:100060000C948A000C948A000000000023002600F3
:10007000290000000000240027002A0000000000E2
:10008000250028002B0004040404040404040202D4
:100090000202020203030303030301020408102007
:1000A0004080010204081020010204081020000012
:1000B0000008000201000003040700000000000027
:1000C00000006E0411241FBECFEFD8E0DEBFCDBF0D
:1000D00011E0A0E0B1E0E8EEF0E102C005900D9281
:1000E000AA34B107D9F722E0AAE4B1E001C01D9219
:1000F000AC31B207E1F710E0C2E6D0E004C02197CE
:10010000FE010E946C08C136D107C9F70E94E504C0
:100110000C9472080C94000090E0FC01E255FF4F33
:100120002491FC01E656FF4F3491FC01EA57FF4F42
:10013000E491EE23C9F0222339F0233001F1A8F431
:10014000213019F1223029F1F0E0EE0FFF1FE458C1
:10015000FF4FA591B4918FB7F894EC91611126C02F
:1001600030953E233C938FBF08952730A9F0283067
:10017000C9F0243049F7809180008F7D03C08091C1
:1001800080008F7780938000DFCF84B58F7784BD28
:10019000DBCF84B58F7DFBCF8091B0008F778093CC
:1001A000B000D2CF8091B0008F7DF9CF3E2BDACF57
:1001B000CF93DF9390E0FC01E656FF4F24918A57DE
:1001C0009F4FFC0184918823D1F090E0880F991F04
:1001D000FC01EE58FF4FA591B491FC01E458FF4F8C
:1001E000C591D49161110EC09FB7F8948C91E22F04
:1001F000E0958E238C932881E223E8839FBFDF91D3
:10020000CF9108958FB7F894EC91E22BEC938FBFC8
:10021000F6CF3FB7F8948091500190915101A09191
:100220005201B091530126B5A89B05C02F3F19F08C
:100230000196A11DB11D3FBFBA2FA92F982F882766
:10024000BC01CD01620F711D811D911D42E0660F41
:10025000771F881F991F4A95D1F70895AF92BF92D3
:10026000CF92DF92EF92FF920F931F93CF93DF9382
:100270006C017B018B01040F151FEB015E01AE18B1
:10028000BF08C017D10759F06991D601ED91FC91D3
:100290000190F081E02DC6010995892B79F7C50100
:1002A000DF91CF911F910F91FF90EF90DF90CF9052
:1002B000BF90AF900895FC01538D448D252F30E001
:1002C000842F90E0821B930B541710F0CF96089563
:1002D00001970895FC01918D828D981761F0A28D90
:1002E000AE0FBF2FB11D5D968C91928D9F5F9F7356
:1002F000928F90E008958FEF9FEF0895FC01918D0C
:10030000828D981731F0828DE80FF11D858D90E078
:1003100008958FEF9FEF0895FC01918D228D892F15
:1003200090E0805C9F4F821B91098F7399270895FD
:1003300084E591E00E948C0121E0892B09F420E002
:10034000822F089580E090E0892B29F00E94980187
:1003500081110C9400000895FC01A48DA80FB92F01
:10036000B11DA35ABF4F2C91848D90E001968F73DD
:100370009927848FA689B7892C93A089B1898C91FC
:10038000837080648C93938D848D981306C002884B
:10039000F389E02D80818F7D80830895EF92FF9215
:1003A0000F931F93CF93DF93EC0181E0888F9B8D98
:1003B0008C8D98131AC0E889F989808185FF15C052
:1003C0009FB7F894EE89FF896083E889F989808175
:1003D0008370806480839FBF81E090E0DF91CF9144
:1003E0001F910F91FF90EF900895F62E0B8D10E066
:1003F0000F5F1F4F0F731127E02E8C8D8E110CC0D5
:100400000FB607FCFACFE889F989808185FFF5CF1F
:10041000CE010E94AC01F1CFEB8DEC0FFD2FF11D51
:10042000E35AFF4FF0829FB7F8940B8FEA89FB895C
:1004300080818062CFCFCF93DF93EC01888D8823BA
:10044000B9F0AA89BB89E889F9898C9185FD03C037
:10045000808186FD0DC00FB607FCF7CF8C9185FF1C
:10046000F2CF808185FFEDCFCE010E94AC01E9CFB4
:10047000DF91CF9108958F929F92AF92BF92FF929A
:100480000F931F93CF93DF93FC01F0808BE08F15C8
:1004900008F44AC0828108E512E0081B110987FDB3
:1004A0001395000F111F000F111F8181C8E8D0E0C4
:1004B000C81BD10987FDD395CC0FDD1FCC0FDD1FE5
:1004C0004E010D2E000CAA08BB089801012E000C4D
:1004D000440B550B281939094A095B09DB010E94B5
:1004E000F10624EB30E040E050E00E94C706820EA7
:1004F000931EA41EB51E8C169D062CF0E8018016D6
:1005000091060CF4E4012297CC0FDD1F2FB7F8946D
:100510008F2D90E0FC01EE0FFF1FE80FF91FEF5049
:10052000FE4FD283C1832FBFDF91CF911F910F91D7
:10053000FF90BF90AF909F908F900895892B79F492
:100540001092800082E080938100109285001092CA
:100550008400B19A80916F00826080936F0008954B
:10056000FC0101900020E9F73197AF01481B590BBE
:10057000BC0184E591E00C942E01CF93DF930E949F
:10058000B002EC0182E191E00E94B0028C0F9D1F4D
:10059000DF91CF9108951F920F920FB60F92112401
:1005A0002F933F938F939F93AF93BF9380914C0171
:1005B00090914D01A0914E01B0914F0130914B01AE
:1005C00023E0230F2D3758F50196A11DB11D20936F
:1005D0004B0180934C0190934D01A0934E01B09339
:1005E0004F018091500190915101A0915201B09121
:1005F00053010196A11DB11D8093500190935101AB
:10060000A0935201B0935301BF91AF919F918F91ED
:100610003F912F910F900FBE0F901F90189526E8D5
:10062000230F0296A11DB11DD2CF1F920F920FB6BC
:100630000F9211242F933F934F935F936F937F9368
:100640008F939F93AF93BF93EF93FF9384E591E0D4
:100650000E94AC01FF91EF91BF91AF919F918F915B
:100660007F916F915F914F913F912F910F900FBEAE
:100670000F901F9018951F920F920FB60F92112492
:100680002F938F939F93EF93FF93E0916401F091E9
:1006900065018081E0916A01F0916B0182FD1BC0D0
:1006A000908180916D018F5F8F7320916E01821711
:1006B00041F0E0916D01F0E0EC5AFE4F958F809390
:1006C0006D01FF91EF919F918F912F910F900FBE30
:1006D0000F901F9018958081F4CF1F920F920FB644
:1006E0000F9211242F933F934F935F936F937F93B8
:1006F0008F939F93AF93BF93CF93DF93EF93FF932A
:1007000080914A01C0911502D0E087FF24C0109269
:1007100085001092840080914A018F5F80934A0186
:1007200080914A01082E000C990B8C179D0724F428
:1007300080914A018C30C4F18091840090918500B1
:10074000049680349C4908F47AC08091840090918A
:100750008500049676C080914A01082E000C990B02
:100760008C179D07C4F6E0914A018E2FEE0F990B6E
:10077000FC01EE0FFF1FE80FF91FEF50FE4F8081C5
:1007800086FFC9CFE0914A018E2FEE0F990BFC0135
:10079000EE0FFF1FE80FF91FEF50FE4F808160E062
:1007A0008F730E948C00B7CF209184003091850018
:1007B000E0914A018E2FEE0F990BFC01EE0FFF1F07
:1007C000E80FF91FEF50FE4F81819281820F931F36
:1007D0009093890080938800E0914A018E2FEE0F5C
:1007E000990BFC01EE0FFF1FE80FF91FEF50FE4FB2
:1007F000808186FF11C0E0914A018E2FEE0F990B88
:10080000FC01EE0FFF1FE80FF91FEF50FE4F808134
:1008100061E08F730E948C00FF91EF91DF91CF9187
:10082000BF91AF919F918F917F916F915F914F9108
:100830003F912F910F900FBE0F901F90189580E45D
:100840009CE990938900809388008FEF80934A0100
:10085000E3CFCF92DF92EF92FF920F931F93E82F97
:10086000F92F05C0015011092109310961F1908169
:1008700096239417B9F305C00150110921093109D4
:1008800011F1908196239413F7CFC12CD12CE12C38
:10089000F12C0AC08FEFC81AD80AE80AF80A0C151A
:1008A0001D052E053F0579F080818623841791F37D
:1008B0006C2D7D2D8E2D9F2D1F910F91FF90EF9010
:1008C000DF90CF90089560E070E080E090E01F91AD
:1008D0000F91FF90EF90DF90CF9008951092570105
:1008E0001092560188EE93E0A0E0B0E080935801AA
:1008F00090935901A0935A01B0935B0184E091E079
:10090000909355018093540185EC90E090936101A0
:100910008093600184EC90E0909363018093620186
:1009200080EC90E0909365018093640181EC90E00D
:10093000909367018093660182EC90E09093690147
:100940008093680186EC90E090936B0180936A013C
:1009500010926D0110926E0110926F011092700151
:10096000809115028C3048F591E0980F9093150214
:100970008093190290E0FC01EE0FFF1FE80FF91FB2
:10098000EF50FE4F88EB9BE09283818380911502AC
:100990008C30B8F491E0980F909315028093160272
:1009A00090E0FC01EE0FFF1FE80FF91FEF50FE4F24
:1009B00088EB9BE09283818308958FEF80931902E7
:1009C000E5CF8FEF809316020895CF93DF93CDB7D5
:1009D000DEB7A1970FB6F894DEBF0FBECDBF7894F7
:1009E00084B5826084BD84B5816084BD85B5826034
:1009F00085BD85B5816085BD80916E0081608093E5
:100A00006E0010928100809181008260809381004D
:100A1000809181008160809381008091800081605D
:100A2000809380008091B10084608093B1008091B8
:100A3000B00081608093B00080917A0084608093E0
:100A40007A0080917A00826080937A0080917A00A7
:100A5000816080937A0080917A00806880937A0028
:100A60001092C100E0916401F091650182E0808301
:100A7000E0916001F09161011082E0916201F091DA
:100A800063018FEC808310926C01E0916801F0911A
:100A9000690186E08083E0916601F09167018081C1
:100AA00080618083E0916601F091670180818860B8
:100AB0008083E0916601F091670180818068808386
:100AC000E0916601F091670180818F7D808361E014
:100AD00083E00E94D80060E082E00E94D80080910C
:100AE00019028C3008F043C061E084E00E94D80015
:100AF00080911902282F30E0F901EE0FFF1FE20F5D
:100B0000F31FEF50FE4F9081907C94609083109281
:100B10001A0210921B022CE0622F0E94600890E0E3
:100B2000829FB001112430E020E0AB01420F531F3F
:100B3000FA01EE0FFF1FE40FF51FEF50FE4F40814B
:100B400046FD07C02F5F3F4F2C30310571F70E94E3
:100B50009E02E09119028E2F90E0FC01EE0FFF1F24
:100B6000E80FF91FEF50FE4F8081806480838091F1
:100B700016028C3008F043C061E087E00E94D80084
:100B800080911602282F30E0F901EE0FFF1FE20FCF
:100B9000F31FEF50FE4F9081907C976090831092EE
:100BA0001702109218022CE0622F0E94600890E059
:100BB000829FB001112430E020E0AB01420F531FAF
:100BC000FA01EE0FFF1FE40FF51FEF50FE4F4081BB
:100BD00046FD07C02F5F3F4F2C30310571F70E9453
:100BE0009E02E09116028E2F90E0FC01EE0FFF1F97
:100BF000E80FF91FEF50FE4F8081806480834FE043
:100C0000242E312C5AE0852E912CA12CB12C60E0A1
:100C100083E00E948C00C1010197F1F761E083E05D
:100C20000E948C008BE891E00197F1F760E083E08F
:100C30000E948C00EDE9F0E06491E9E8F0E0849135
:100C4000E82FF0E0EE0FFF1FE859FF4F85919491D8
:100C500000E412E42FE030E0462F0E9429046115E1
:100C600071058105910529F06F5F7F4F8F4F9F4F71
:100C70009F7095958795779567950E94D4072DEC81
:100C80003CEC48EE51E40E942A070E949C076B014D
:100C90007C01F5E0CF16D104E104F1040CF052C060
:100CA00085E191E00E94BD026AE570E089E192E091
:100CB0000E943B026AE570E086E192E00E943B02FE
:100CC000A7019601D701C6010197A109B109CC97E7
:100CD000A105B10508F43FC08DE291E00E94BD027C
:100CE0000E9409012B013C0184EFC82EDD24D3941E
:100CF000E12CF12C0E9409016419750986099709F4
:100D0000683E734081059105A8F3F1E0CF1AD10840
:100D1000E108F10828EE420E23E0521E611C711C0E
:100D2000C114D104E104F10429F780E090E0892B9B
:100D300009F46DCF0E949801882309F468CF0E94BE
:100D4000000065CF70E060E089E192E00E943B0224
:100D500070E060E0B1CF19A27E0181E2E80EF11CE3
:100D6000CA01B901A50194010E94F906605DF7016D
:100D700062937F01211531054105510589F73097AF
:100D800019F0CF010E94B00286E491E0A7CF052EB2
:100D900097FB1EF400940E94DE0657FD07D00E94C8
:100DA000F90607FC03D04EF40C94DE0650954095EE
:100DB000309521953F4F4F4F5F4F08959095809507
:100DC000709561957F4F8F4F9F4F08950E941B072D
:100DD000A59F900DB49F900DA49F800D911D11248F
:100DE0000895B7FF0C94E6060E94E606821B930B5B
:100DF0000895A1E21A2EAA1BBB1BFD010DC0AA1F5C
:100E0000BB1FEE1FFF1FA217B307E407F50720F073
:100E1000A21BB30BE40BF50B661F771F881F991FEE
:100E20001A9469F760957095809590959B01AC0137
:100E3000BD01CF010895A29FB001B39FC001A39F40
:100E4000700D811D1124911DB29F700D811D112403
:100E5000911D08950E943E070C9426080E941F08C9
:100E600058F00E94180840F029F45F3F29F00C94D4
:100E70000F0851110C945A080C9415080E94370859
:100E800068F39923B1F3552391F3951B550BBB27B9
:100E9000AA2762177307840738F09F5F5F4F220FFE
:100EA000331F441FAA1FA9F335D00E2E3AF0E0E8F5
:100EB00032D091505040E695001CCAF72BD0FE2F3F
:100EC00029D0660F771F881FBB1F261737074807D3
:100ED000AB07B0E809F0BB0B802DBF01FF2793588B
:100EE0005F4F3AF09E3F510578F00C940F080C9438
:100EF0005A085F3FE4F3983ED4F38695779567955B
:100F0000B795F7959F5FC9F7880F911D96958795BF
:100F100097F90895E1E0660F771F881FBB1F6217DE
:100F200073078407BA0720F0621B730B840BBA0B9C
:100F3000EE1F88F7E09508950E94A3076894B11109
:100F40000C945A0808950E943F0888F09F5798F023
:100F5000B92F9927B751B0F0E1F0660F771F881FBE
:100F6000991F1AF0BA95C9F714C0B13091F00E94D8
:100F70005908B1E008950C945908672F782F8827F5
:100F8000B85F39F0B93FCCF3869577956795B395FF
:100F9000D9F73EF490958095709561957F4F8F4F6E
:100FA0009F4F0895E89409C097FB3EF49095809573
:100FB000709561957F4F8F4F9F4F9923A9F0F92F1F
:100FC00096E9BB279395F695879577956795B7959D
:100FD000F111F8CFFAF4BB0F11F460FF1BC06F5F83
:100FE0007F4F8F4F9F4F16C0882311F096E911C095
:100FF000772321F09EE8872F762F05C0662371F0B6
:1010000096E8862F70E060E02AF09A95660F771FC9
:10101000881FDAF7880F9695879597F9089597F9BD
:101020009F6780E870E060E008959FEF80EC08958E
:1010300000240A94161617061806090608950024B7
:101040000A9412161306140605060895092E039431
:10105000000C11F4882352F0BB0F40F4BF2B11F4A5
:1010600060FF04C06F5F7F4F8F4F9F4F089557FD04
:101070009058440F551F59F05F3F71F04795880F06
:1010800097FB991F61F09F3F79F08795089512169D
:1010900013061406551FF2CF4695F1DF08C0161649
:1010A00017061806991FF1CF8695710561050894FA
:1010B0000895E894BB2766277727CB0197F9089511
:1010C000991B79E004C0991F961708F0961B881F9A
:1010D0007A95C9F780950895EE0FFF1F0590F4915A
:1010E000E02D0994F894FFCF00000000CE012E01FE
:1010F0005B011B028C016A017E010D0A00646973A9
:1011000074616E6365206973206C65737320746805
:10111000616E20350064697374616E636520697364
:10112000206D6F7265207468616E20363000636DCB
:021130000000BD
:107E0000112484B714BE81FFF0D085E080938100F7
:107E100082E08093C00088E18093C10086E0809377
:107E2000C20080E18093C4008EE0C9D0259A86E02C
:107E300020E33CEF91E0309385002093840096BBD3
:107E4000B09BFECF1D9AA8958150A9F7CC24DD24C4
:107E500088248394B5E0AB2EA1E19A2EF3E0BF2EE7
:107E6000A2D0813461F49FD0082FAFD0023811F036
:107E7000013811F484E001C083E08DD089C08234E0
:107E800011F484E103C0853419F485E0A6D080C0E4
:107E9000853579F488D0E82EFF2485D0082F10E0AE
:107EA000102F00270E291F29000F111F8ED06801E7
:107EB0006FC0863521F484E090D080E0DECF843638
:107EC00009F040C070D06FD0082F6DD080E0C81688
:107ED00080E7D80618F4F601B7BEE895C0E0D1E017
:107EE00062D089930C17E1F7F0E0CF16F0E7DF06D8
:107EF00018F0F601B7BEE89568D007B600FCFDCFD4
:107F0000A601A0E0B1E02C9130E011968C91119780
:107F100090E0982F8827822B932B1296FA010C0160
:107F200087BEE89511244E5F5F4FF1E0A038BF0790
:107F300051F7F601A7BEE89507B600FCFDCF97BE46
:107F4000E89526C08437B1F42ED02DD0F82E2BD052
:107F50003CD0F601EF2C8F010F5F1F4F84911BD097
:107F6000EA94F801C1F70894C11CD11CFA94CF0C13
:107F7000D11C0EC0853739F428D08EE10CD085E9AC
:107F80000AD08FE07ACF813511F488E018D01DD067
:107F900080E101D065CF982F8091C00085FFFCCF94
:107FA0009093C60008958091C00087FFFCCF809118
:107FB000C00084FD01C0A8958091C6000895E0E648
:107FC000F0E098E1908380830895EDDF803219F02E
:107FD00088E0F5DFFFCF84E1DECF1F93182FE3DFCA
:107FE0001150E9F7F2DF1F91089580E0E8DFEE27F6
:047FF000FF270994CA
:027FFE00040479
:00000001FF
