:100000000C9462000C948A000C948A000C948A0070
:100010000C948A000C948A000C948A000C948A0038
:100020000C948A000C948A000C948A000C948A0028
:100030000C948A000C948A000C948A000C948A0018
:100040000C9458020C948A000C94C8020C94A202DE
:100050000C948A000C948A000C948A000C948A00F8
:100060000C948A000C948A000000000024002700F1
:100070002A000000000023002600290000000000E4
:10008000250028002B0004040404040404040202D4
:100090000202020203030303030301020408102007
:1000A0004080010204081020010204081020000012
:1000B0000008000201000003040700000000000027
:1000C0000000850411241FBECFEFD8E0DEBFCDBFF6
:1000D00011E0A0E0B1E0E8E0FAE002C005900D9286
:1000E000A631B107D9F721E0A6E1B1E001C01D9228
:1000F000AC3BB207E1F710E0C2E6D0E004C02197C4
:10010000FE010E94FC04C136D107C9F70E943F03DB
:100110000C9402050C94000090E0FC01E255FF4FA6
:100120002491FC01E656FF4F3491FC01EA57FF4F42
:10013000E491EE23C9F0222339F0233001F1A8F431
:10014000213019F1223029F1F0E0EE0FFF1FE458C1
:10015000FF4FA591B4918FB7F894EC91611126C02F
:1001600030953E233C938FBF08952730A9F0283067
:10017000C9F0243049F7809180008F7D03C08091C1
:1001800080008F7780938000DFCF84B58F7784BD28
:10019000DBCF84B58F7DFBCF8091B0008F778093CC
:1001A000B000D2CF8091B0008F7DF9CF3E2BDACF57
:1001B0003FB7F89480911B0190911C01A0911D0103
:1001C000B0911E0126B5A89B05C02F3F19F00196DE
:1001D000A11DB11D3FBFBA2FA92F982F8827BC01A1
:1001E000CD01620F711D811D911D42E0660F771FC9
:1001F000881F991F4A95D1F70895AF92BF92CF9269
:10020000DF92EF92FF920F931F93CF93DF936C01D6
:100210007B018B01040F151FEB015E01AE18BF08B7
:10022000C017D10759F06991D601ED91FC91019069
:10023000F081E02DC6010995892B79F7C501DF9181
:10024000CF911F910F91FF90EF90DF90CF90BF90D3
:10025000AF900895FC01538D448D252F30E0842FFD
:1002600090E0821B930B541710F0CF9608950197DE
:100270000895FC01918D828D981761F0A28DAE0FCB
:10028000BF2FB11D5D968C91928D9F5F9F73928F52
:1002900090E008958FEF9FEF0895FC01918D828D7E
:1002A000981731F0828DE80FF11D858D90E008954B
:1002B0008FEF9FEF0895FC01918D228D892F90E0A3
:1002C000805C9F4F821B91098F73992708958FE15E
:1002D00091E00E945B0121E0892B09F420E0822F4C
:1002E000089580E090E0892B29F00E946701811138
:1002F0000C9400000895FC01A48DA80FB92FB11D26
:10030000A35ABF4F2C91848D90E001968F7399274B
:10031000848FA689B7892C93A089B1898C91837029
:1003200080648C93938D848D981306C00288F38922
:10033000E02D80818F7D80830895EF92FF920F934F
:100340001F93CF93DF93EC0181E0888F9B8D8C8D81
:1003500098131AC0E889F989808185FF15C09FB775
:10036000F894EE89FF896083E889F9898081837038
:10037000806480839FBF81E090E0DF91CF911F91E7
:100380000F91FF90EF900895F62E0B8D10E00F5F08
:100390001F4F0F731127E02E8C8D8E110CC00FB6DE
:1003A00007FCFACFE889F989808185FFF5CFCE0176
:1003B0000E947B01F1CFEB8DEC0FFD2FF11DE35A75
:1003C000FF4FF0829FB7F8940B8FEA89FB898081F9
:1003D0008062CFCFCF93DF93EC01888D8823B9F073
:1003E000AA89BB89E889F9898C9185FD03C0808140
:1003F00086FD0DC00FB607FCF7CF8C9185FFF2CFBD
:10040000808185FFEDCFCE010E947B01E9CFDF9196
:10041000CF9108958F929F92AF92BF920F931F93A7
:10042000CF93DF93CDB7DEB7A1970FB6F894DEBFB9
:100430000FBECDBF19A2423008F44AE08E010F5D15
:100440001F4F842E912CB12CA12CA50194010E9448
:10045000C604E62FB901CA01EA3044F5E05DD801CF
:10046000EE938D01232B242B252B79F790E080E050
:10047000109769F0FD0101900020E9F73197AF0175
:100480004A1B5B0BBD018FE191E00E94FD00A1962C
:100490000FB6F894DEBF0FBECDBFDF91CF911F9195
:1004A0000F91BF90AF909F908F900895E95CD7CF48
:1004B0001F920F920FB60F9211242F933F938F9399
:1004C0009F93AF93BF938091170190911801A091D2
:1004D0001901B0911A013091160123E0230F2D3735
:1004E00058F50196A11DB11D2093160180931701A7
:1004F00090931801A0931901B0931A0180911B01E8
:1005000090911C01A0911D01B0911E010196A11DA9
:10051000B11D80931B0190931C01A0931D01B0930A
:100520001E01BF91AF919F918F913F912F910F909D
:100530000FBE0F901F90189526E8230F0296A11D5D
:10054000B11DD2CF1F920F920FB60F9211242F938D
:100550003F934F935F936F937F938F939F93AF934B
:10056000BF93EF93FF938FE191E00E947B01FF9196
:10057000EF91BF91AF919F918F917F916F915F911B
:100580004F913F912F910F900FBE0F901F90189594
:100590001F920F920FB60F9211242F938F939F9358
:1005A000EF93FF93E0912F01F09130018081E09172
:1005B0003501F091360182FD1BC090818091380198
:1005C0008F5F8F7320913901821741F0E0913801DC
:1005D000F0E0E15EFE4F958F80933801FF91EF913F
:1005E0009F918F912F910F900FBE0F901F90189594
:1005F0008081F4CFCF92DF92EF92FF920F931F93FF
:10060000E82FF92F05C0015011092109310961F1C5
:10061000908196239417B9F305C00150110921095F
:10062000310911F1908196239413F7CFC12CD12C6D
:10063000E12CF12C0AC08FEFC81AD80AE80AF80A90
:100640000C151D052E053F0579F080818623841742
:1006500091F36C2D7D2D8E2D9F2D1F910F91FF906D
:10066000EF90DF90CF90089560E070E080E090E040
:100670001F910F91FF90EF90DF90CF9008957894A5
:1006800084B5826084BD84B5816084BD85B5826097
:1006900085BD85B5816085BD80916E008160809348
:1006A0006E001092810080918100826080938100B1
:1006B00080918100816080938100809180008160C1
:1006C000809380008091B10084608093B10080911C
:1006D000B00081608093B00080917A008460809344
:1006E0007A0080917A00826080937A0080917A000B
:1006F000816080937A0080917A00806880937A008C
:100700001092C100E0912F01F091300182E08083CE
:10071000E0912B01F0912C011082E0912D01F091DC
:100720002E018FEC808310923701E0913301F0911C
:10073000340186E08083E0913101F09132018081C3
:1007400080618083E0913101F09132018081886085
:100750008083E0913101F091320180818068808353
:10076000E0913101F091320180818F7D8083E1EA57
:10077000F0E02491EDE8F0E08491882399F090E096
:10078000880F991FFC01E859FF4FA591B491FC0116
:10079000E458FF4F859194918FB7F894EC91E22B38
:1007A000EC938FBFE0EAF0E02491ECE8F0E0849174
:1007B0008823C1F090E0880F991FFC01E859FF4F92
:1007C000A591B491FC01E458FF4FC591D4913FB776
:1007D000F8949C91822F809598239C9398818923EB
:1007E00088833FBF23E0222E312CC3E2D0E03AE3DE
:1007F000A32EB12C40E0842E40E0942E60E087E0F0
:100800000E948C00C1010197F1F761E087E00E942E
:100810008C00CE010197F1F760E087E00E948C0028
:10082000E0EAF0E06491ECE8F0E08491E82FF0E099
:10083000EE0FFF1FEE58FF4F8591949100E412E4F4
:100840002FE030E0462F0E94FA0261157105810504
:10085000910529F06F5F7F4F8F4F9F4F9F70CB01A6
:10086000B5010E94B2046B01072E000CEE08FF08D0
:1008700077FF47C06DE28FE191E00E949D016627FE
:100880007727CB016C197D098E099F094AE00E94E8
:100890000A0242E050E062E171E08FE191E00E94E3
:1008A000FD000E94D8002B013C0184E6C82ED12C0B
:1008B000E12CF12C0E94D80064197509860997096A
:1008C000683E734081059105A8F3F1E0CF1AD10885
:1008D000E108F10828EE420E23E0521E611C711C53
:1008E000C114D104E104F10429F78114910409F43D
:1008F00085CF0E946701882309F480CF0E94000001
:100900007DCF4AE0C701B601C2CFEFE1F1E013822B
:10091000128288EE93E0A0E0B0E084839583A68302
:10092000B78384E091E09183808385EC90E09587A4
:10093000848784EC90E09787868780EC90E0918BA9
:10094000808B81EC90E0938B828B82EC90E0958B96
:10095000848B86EC90E0978B868B118E128E138E93
:10096000148E089597FB072E16F4009407D077FD98
:1009700009D00E94E80407FC05D03EF490958195CB
:100980009F4F0895709561957F4F0895A1E21A2EAB
:10099000AA1BBB1BFD010DC0AA1FBB1FEE1FFF1F23
:1009A000A217B307E407F50720F0A21BB30BE40B73
:1009B000F50B661F771F881F991F1A9469F76095BA
:1009C0007095809590959B01AC01BD01CF01089574
:1009D000AA1BBB1B51E107C0AA1FBB1FA617B70765
:1009E00010F0A61BB70B881F991F5A95A9F7809581
:1009F0009095BC01CD010895EE0FFF1F0590F49175
:080A0000E02D0994F894FFCFEA
:100A0800000000009D01FD002A01EA015B01390197
:060A18004D010D0A000073
:00000001FF
